{"contracts/WhitelistRegistry.sol":{"WhitelistRegistry":{"abi":[{"inputs":[{"internalType":"address","name":"_verifier","type":"address"}],"stateMutability":"nonpayable","type":"constructor"},{"anonymous":false,"inputs":[{"indexed":true,"internalType":"uint256","name":"eventId","type":"uint256"},{"indexed":false,"internalType":"uint256","name":"nullifier","type":"uint256"},{"indexed":false,"internalType":"uint256","name":"commitment","type":"uint256"},{"indexed":false,"internalType":"uint256","name":"leafIndex","type":"uint256"},{"indexed":false,"internalType":"uint256","name":"newRoot","type":"uint256"},{"indexed":false,"internalType":"uint256","name":"timestamp","type":"uint256"}],"name":"ApprovalVerified","type":"event"},{"anonymous":false,"inputs":[{"indexed":true,"internalType":"uint256","name":"oldRoot","type":"uint256"},{"indexed":true,"internalType":"uint256","name":"newRoot","type":"uint256"},{"indexed":false,"internalType":"uint256","name":"leafIndex","type":"uint256"}],"name":"RootUpdated","type":"event"},{"anonymous":false,"inputs":[{"indexed":false,"internalType":"address","name":"oldVerifier","type":"address"},{"indexed":false,"internalType":"address","name":"newVerifier","type":"address"}],"name":"VerifierUpdated","type":"event"},{"inputs":[],"name":"ROOT_HISTORY_SIZE","outputs":[{"internalType":"uint256","name":"","type":"uint256"}],"stateMutability":"view","type":"function"},{"inputs":[],"name":"admin","outputs":[{"internalType":"address","name":"","type":"address"}],"stateMutability":"view","type":"function"},{"inputs":[{"internalType":"uint256","name":"","type":"uint256"},{"internalType":"uint256","name":"","type":"uint256"}],"name":"commitments","outputs":[{"internalType":"bool","name":"","type":"bool"}],"stateMutability":"view","type":"function"},{"inputs":[],"name":"currentRootIndex","outputs":[{"internalType":"uint256","name":"","type":"uint256"}],"stateMutability":"view","type":"function"},{"inputs":[{"internalType":"uint256","name":"","type":"uint256"}],"name":"eventVerifiedCount","outputs":[{"internalType":"uint256","name":"","type":"uint256"}],"stateMutability":"view","type":"function"},{"inputs":[],"name":"getMerkleRoot","outputs":[{"internalType":"uint256","name":"","type":"uint256"}],"stateMutability":"view","type":"function"},{"inputs":[],"name":"getNextLeafIndex","outputs":[{"internalType":"uint256","name":"","type":"uint256"}],"stateMutability":"view","type":"function"},{"inputs":[{"internalType":"uint256","name":"_eventId","type":"uint256"}],"name":"getVerifiedCount","outputs":[{"internalType":"uint256","name":"","type":"uint256"}],"stateMutability":"view","type":"function"},{"inputs":[{"internalType":"uint256","name":"_eventId","type":"uint256"},{"internalType":"uint256","name":"_commitment","type":"uint256"}],"name":"hasCommitment","outputs":[{"internalType":"bool","name":"","type":"bool"}],"stateMutability":"view","type":"function"},{"inputs":[{"internalType":"uint256","name":"","type":"uint256"}],"name":"isKnownRoot","outputs":[{"internalType":"bool","name":"","type":"bool"}],"stateMutability":"view","type":"function"},{"inputs":[{"internalType":"uint256","name":"_eventId","type":"uint256"},{"internalType":"uint256","name":"_nullifier","type":"uint256"}],"name":"isNullifierUsed","outputs":[{"internalType":"bool","name":"","type":"bool"}],"stateMutability":"view","type":"function"},{"inputs":[{"internalType":"uint256","name":"_root","type":"uint256"}],"name":"isValidRoot","outputs":[{"internalType":"bool","name":"","type":"bool"}],"stateMutability":"view","type":"function"},{"inputs":[{"internalType":"uint256","name":"","type":"uint256"}],"name":"leafToCommitment","outputs":[{"internalType":"uint256","name":"","type":"uint256"}],"stateMutability":"view","type":"function"},{"inputs":[{"internalType":"uint256","name":"","type":"uint256"}],"name":"rootHistory","outputs":[{"internalType":"uint256","name":"","type":"uint256"}],"stateMutability":"view","type":"function"},{"inputs":[],"name":"totalCommitments","outputs":[{"internalType":"uint256","name":"","type":"uint256"}],"stateMutability":"view","type":"function"},{"inputs":[{"internalType":"address","name":"_newAdmin","type":"address"}],"name":"transferAdmin","outputs":[],"stateMutability":"nonpayable","type":"function"},{"inputs":[{"internalType":"address","name":"_newVerifier","type":"address"}],"name":"updateVerifier","outputs":[],"stateMutability":"nonpayable","type":"function"},{"inputs":[{"internalType":"uint256","name":"","type":"uint256"},{"internalType":"uint256","name":"","type":"uint256"}],"name":"verifiedApprovals","outputs":[{"internalType":"bool","name":"","type":"bool"}],"stateMutability":"view","type":"function"},{"inputs":[],"name":"verifier","outputs":[{"internalType":"contract IGroth16Verifier","name":"","type":"address"}],"stateMutability":"view","type":"function"},{"inputs":[{"internalType":"uint256[2]","name":"_pA","type":"uint256[2]"},{"internalType":"uint256[2][2]","name":"_pB","type":"uint256[2][2]"},{"internalType":"uint256[2]","name":"_pC","type":"uint256[2]"},{"internalType":"uint256[3]","name":"_pubSignals","type":"uint256[3]"}],"name":"verifyAndRegister","outputs":[{"internalType":"bool","name":"","type":"bool"}],"stateMutability":"nonpayable","type":"function"}],"evm":{"bytecode":{"linkReferences":{},"object":"60806040523480156200001157600080fd5b5060405162000e7238038062000e72833981016040819052620000349162000157565b600080546001600160a01b0383166001600160a01b031991821617909155600180549091163317905562000069600262000091565b50601780546000908152601860205260409020805460ff1916600117905554601955620001c7565b60005b6014811015620000d857620000a981620000ed565b826001018260148110620000c157620000c162000189565b015580620000cf816200019f565b91505062000094565b50620000e56014620000ed565b601590910155565b6000816000036200010057506000919050565b81600103620001455760008060405160200162000127929190918252602082015260400190565b60408051601f19818403018152919052805160209091012092915050565b60408051602081018490520162000127565b6000602082840312156200016a57600080fd5b81516001600160a01b03811681146200018257600080fd5b9392505050565b634e487b7160e01b600052603260045260246000fd5b600060018201620001c057634e487b7160e01b600052601160045260246000fd5b5060010190565b610c9b80620001d76000396000f3fe608060405234801561001057600080fd5b506004361061012c5760003560e01c8063940bcaea116100ad578063b759730d11610071578063b759730d146102da578063cd87a3b4146102ed578063d13e2e60146102f5578063f1c621ee14610323578063f851a4401461033657600080fd5b8063940bcaea146102365780639783de0b1461026457806397fc007c14610284578063a6232a9314610297578063abcea41a146102ba57600080fd5b806375829def116100f457806375829def146101c157806378bb86d3146101d657806385c74296146101df57806388a78d9e1461020d57806390eeb02b1461022d57600080fd5b80632b7ac3f3146101315780632cdabbce14610161578063495906571461019457806350e9b925146101a65780635b7ce6d0146101ae575b600080fd5b600054610144906001600160a01b031681565b6040516001600160a01b0390911681526020015b60405180910390f35b61018461016f36600461097c565b60009081526018602052604090205460ff1690565b6040519015158152602001610158565b6017545b604051908152602001610158565b600254610198565b6101846101bc366004610995565b610349565b6101d46101cf3660046109b7565b61036d565b005b61019860825481565b6101846101ed366004610995565b6000918252607e6020908152604080842092845291905290205460ff1690565b61019861021b36600461097c565b60009081526081602052604090205490565b610198607d5481565b610184610244366004610995565b607e60209081526000928352604080842090915290825290205460ff1681565b61019861027236600461097c565b60816020526000908152604090205481565b6101d46102923660046109b7565b610437565b6101846102a536600461097c565b60186020526000908152604090205460ff1681565b6101986102c836600461097c565b60806020526000908152604090205481565b6101846102e83660046109f8565b6104ed565b610198606481565b610184610303366004610995565b607f60209081526000928352604080842090915290825290205460ff1681565b61019861033136600461097c565b6107a6565b600154610144906001600160a01b031681565b6000828152607f6020908152604080832084845290915290205460ff165b92915050565b6001546001600160a01b031633146103c75760405162461bcd60e51b81526020600482015260186024820152774f6e6c792061646d696e2063616e2063616c6c207468697360401b60448201526064015b60405180910390fd5b6001600160a01b0381166104155760405162461bcd60e51b8152602060048201526015602482015274496e76616c69642061646d696e206164647265737360581b60448201526064016103be565b600180546001600160a01b0319166001600160a01b0392909216919091179055565b6001546001600160a01b0316331461048c5760405162461bcd60e51b81526020600482015260186024820152774f6e6c792061646d696e2063616e2063616c6c207468697360401b60448201526064016103be565b600080546001600160a01b038381166001600160a01b031983168117909355604080519190921680825260208201939093527f0243549a92b2412f7a3caf7a2e56d65b8821b91345363faa5f57195384065fcc910160405180910390a15050565b6040808201356000818152607e6020908152838220818601358084529152928120549092843592909160ff16156105665760405162461bcd60e51b815260206004820152601960248201527f417070726f76616c20616c72656164792076657269666965640000000000000060448201526064016103be565b600080546040516308a3cff560e11b81526001600160a01b03909116906311479fea9061059d908c908c908c908c90600401610a74565b602060405180830381865afa1580156105ba573d6000803e3d6000fd5b505050506040513d601f19601f820116820180604052508101906105de9190610ac0565b9050806106205760405162461bcd60e51b815260206004820152601060248201526f24b73b30b634b2102d2590383937b7b360811b60448201526064016103be565b6000828152607e6020908152604080832086845282528083208054600160ff199182168117909255868552607f84528285208986528452828520805490911690911790558483526081909152812080549161067a83610af8565b9091555050601754600061068f6002876107bd565b601754607d54919250906064906106a7906001610b11565b6106b19190610b3a565b607d8190558190601990606481106106cb576106cb610a5e565b01556000818152601860209081526040808320805460ff1916600117905584835260809091528120889055608280549161070483610af8565b919050555080837f085abb7e1ec79f8009eefd74599f97ea7fc898d7fa78827628d02bf5178e0ea68460405161073c91815260200190565b60405180910390a360408051878152602081018990529081018390526060810182905242608082015285907f047a0df1f857ac2c7d2be4a11eb4f860ffccba11dc1d83f4823590d9036221e19060a00160405180910390a25060019b9a5050505050505050505050565b601981606481106107b657600080fd5b0154905081565b60006107cb60146002610c32565b8354106108095760405162461bcd60e51b815260206004820152600c60248201526b151c9959481a5cc8199d5b1b60a21b60448201526064016103be565b82548260005b60148110156108e457610823600284610b3a565b60000361087e578186600101826014811061084057610840610a5e565b01558161084c82610916565b6040805160208101939093528201526060016040516020818303038152906040528051906020012060001c91506108c5565b85600101816014811061089357610893610a5e565b015460408051602081019290925281018390526060016040516020818303038152906040528051906020012060001c91505b6108d0600284610c3e565b9250806108dc81610af8565b91505061080f565b506015850181905584548560006108fa83610af8565b9091555050845461090d90600190610c52565b95945050505050565b60008160000361092857506000919050565b8160010361096b5760008060405160200161094d929190918252602082015260400190565b60408051601f19818403018152919052805160209091012092915050565b60408051602081018490520161094d565b60006020828403121561098e57600080fd5b5035919050565b600080604083850312156109a857600080fd5b50508035926020909101359150565b6000602082840312156109c957600080fd5b81356001600160a01b03811681146109e057600080fd5b9392505050565b806040810183101561036757600080fd5b600080600080610160808688031215610a1057600080fd5b610a1a87876109e7565b945060c0860187811115610a2d57600080fd5b604087019450610a3d88826109e7565b935050868187011115610a4f57600080fd5b50929591945092610100019150565b634e487b7160e01b600052603260045260246000fd5b61016081016040808784378083018660005b6002811015610aa357838284379183019190830190600101610a86565b505050808560c08501375060608361010084013795945050505050565b600060208284031215610ad257600080fd5b815180151581146109e057600080fd5b634e487b7160e01b600052601160045260246000fd5b600060018201610b0a57610b0a610ae2565b5060010190565b8082018082111561036757610367610ae2565b634e487b7160e01b600052601260045260246000fd5b600082610b4957610b49610b24565b500690565b600181815b80851115610b89578160001904821115610b6f57610b6f610ae2565b80851615610b7c57918102915b93841c9390800290610b53565b509250929050565b600082610ba057506001610367565b81610bad57506000610367565b8160018114610bc35760028114610bcd57610be9565b6001915050610367565b60ff841115610bde57610bde610ae2565b50506001821b610367565b5060208310610133831016604e8410600b8410161715610c0c575081810a610367565b610c168383610b4e565b8060001904821115610c2a57610c2a610ae2565b029392505050565b60006109e08383610b91565b600082610c4d57610c4d610b24565b500490565b8181038181111561036757610367610ae256fea26469706673582212204dec269366ec7f574ccb0d49df6d6ede4813d6b7c825a6dede1f0b176791e56664736f6c63430008140033","opcodes":"PUSH1 0x80 PUSH1 0x40 MSTORE CALLVALUE DUP1 ISZERO PUSH3 0x11 JUMPI PUSH1 0x0 DUP1 REVERT JUMPDEST POP PUSH1 0x40 MLOAD PUSH3 0xE72 CODESIZE SUB DUP1 PUSH3 0xE72 DUP4 CODECOPY DUP2 ADD PUSH1 0x40 DUP2 SWAP1 MSTORE PUSH3 0x34 SWAP2 PUSH3 0x157 JUMP JUMPDEST PUSH1 0x0 DUP1 SLOAD PUSH1 0x1 PUSH1 0x1 PUSH1 0xA0 SHL SUB DUP4 AND PUSH1 0x1 PUSH1 0x1 PUSH1 0xA0 SHL SUB NOT SWAP2 DUP3 AND OR SWAP1 SWAP2 SSTORE PUSH1 0x1 DUP1 SLOAD SWAP1 SWAP2 AND CALLER OR SWAP1 SSTORE PUSH3 0x69 PUSH1 0x2 PUSH3 0x91 JUMP JUMPDEST POP PUSH1 0x17 DUP1 SLOAD PUSH1 0x0 SWAP1 DUP2 MSTORE PUSH1 0x18 PUSH1 0x20 MSTORE PUSH1 0x40 SWAP1 KECCAK256 DUP1 SLOAD PUSH1 0xFF NOT AND PUSH1 0x1 OR SWAP1 SSTORE SLOAD PUSH1 0x19 SSTORE PUSH3 0x1C7 JUMP JUMPDEST PUSH1 0x0 JUMPDEST PUSH1 0x14 DUP2 LT ISZERO PUSH3 0xD8 JUMPI PUSH3 0xA9 DUP2 PUSH3 0xED JUMP JUMPDEST DUP3 PUSH1 0x1 ADD DUP3 PUSH1 0x14 DUP2 LT PUSH3 0xC1 JUMPI PUSH3 0xC1 PUSH3 0x189 JUMP JUMPDEST ADD SSTORE DUP1 PUSH3 0xCF DUP2 PUSH3 0x19F JUMP JUMPDEST SWAP2 POP POP PUSH3 0x94 JUMP JUMPDEST POP PUSH3 0xE5 PUSH1 0x14 PUSH3 0xED JUMP JUMPDEST PUSH1 0x15 SWAP1 SWAP2 ADD SSTORE JUMP JUMPDEST PUSH1 0x0 DUP2 PUSH1 0x0 SUB PUSH3 0x100 JUMPI POP PUSH1 0x0 SWAP2 SWAP1 POP JUMP JUMPDEST DUP2 PUSH1 0x1 SUB PUSH3 0x145 JUMPI PUSH1 0x0 DUP1 PUSH1 0x40 MLOAD PUSH1 0x20 ADD PUSH3 0x127 SWAP3 SWAP2 SWAP1 SWAP2 DUP3 MSTORE PUSH1 0x20 DUP3 ADD MSTORE PUSH1 0x40 ADD SWAP1 JUMP JUMPDEST PUSH1 0x40 DUP1 MLOAD PUSH1 0x1F NOT DUP2 DUP5 SUB ADD DUP2 MSTORE SWAP2 SWAP1 MSTORE DUP1 MLOAD PUSH1 0x20 SWAP1 SWAP2 ADD KECCAK256 SWAP3 SWAP2 POP POP JUMP JUMPDEST PUSH1 0x40 DUP1 MLOAD PUSH1 0x20 DUP2 ADD DUP5 SWAP1 MSTORE ADD PUSH3 0x127 JUMP JUMPDEST PUSH1 0x0 PUSH1 0x20 DUP3 DUP5 SUB SLT ISZERO PUSH3 0x16A JUMPI PUSH1 0x0 DUP1 REVERT JUMPDEST DUP2 MLOAD PUSH1 0x1 PUSH1 0x1 PUSH1 0xA0 SHL SUB DUP2 AND DUP2 EQ PUSH3 0x182 JUMPI PUSH1 0x0 DUP1 REVERT JUMPDEST SWAP4 SWAP3 POP POP POP JUMP JUMPDEST PUSH4 0x4E487B71 PUSH1 0xE0 SHL PUSH1 0x0 MSTORE PUSH1 0x32 PUSH1 0x4 MSTORE PUSH1 0x24 PUSH1 0x0 REVERT JUMPDEST PUSH1 0x0 PUSH1 0x1 DUP3 ADD PUSH3 0x1C0 JUMPI PUSH4 0x4E487B71 PUSH1 0xE0 SHL PUSH1 0x0 MSTORE PUSH1 0x11 PUSH1 0x4 MSTORE PUSH1 0x24 PUSH1 0x0 REVERT JUMPDEST POP PUSH1 0x1 ADD SWAP1 JUMP JUMPDEST PUSH2 0xC9B DUP1 PUSH3 0x1D7 PUSH1 0x0 CODECOPY PUSH1 0x0 RETURN INVALID PUSH1 0x80 PUSH1 0x40 MSTORE CALLVALUE DUP1 ISZERO PUSH2 0x10 JUMPI PUSH1 0x0 DUP1 REVERT JUMPDEST POP PUSH1 0x4 CALLDATASIZE LT PUSH2 0x12C JUMPI PUSH1 0x0 CALLDATALOAD PUSH1 0xE0 SHR DUP1 PUSH4 0x940BCAEA GT PUSH2 0xAD JUMPI DUP1 PUSH4 0xB759730D GT PUSH2 0x71 JUMPI DUP1 PUSH4 0xB759730D EQ PUSH2 0x2DA JUMPI DUP1 PUSH4 0xCD87A3B4 EQ PUSH2 0x2ED JUMPI DUP1 PUSH4 0xD13E2E60 EQ PUSH2 0x2F5 JUMPI DUP1 PUSH4 0xF1C621EE EQ PUSH2 0x323 JUMPI DUP1 PUSH4 0xF851A440 EQ PUSH2 0x336 JUMPI PUSH1 0x0 DUP1 REVERT JUMPDEST DUP1 PUSH4 0x940BCAEA EQ PUSH2 0x236 JUMPI DUP1 PUSH4 0x9783DE0B EQ PUSH2 0x264 JUMPI DUP1 PUSH4 0x97FC007C EQ PUSH2 0x284 JUMPI DUP1 PUSH4 0xA6232A93 EQ PUSH2 0x297 JUMPI DUP1 PUSH4 0xABCEA41A EQ PUSH2 0x2BA JUMPI PUSH1 0x0 DUP1 REVERT JUMPDEST DUP1 PUSH4 0x75829DEF GT PUSH2 0xF4 JUMPI DUP1 PUSH4 0x75829DEF EQ PUSH2 0x1C1 JUMPI DUP1 PUSH4 0x78BB86D3 EQ PUSH2 0x1D6 JUMPI DUP1 PUSH4 0x85C74296 EQ PUSH2 0x1DF JUMPI DUP1 PUSH4 0x88A78D9E EQ PUSH2 0x20D JUMPI DUP1 PUSH4 0x90EEB02B EQ PUSH2 0x22D JUMPI PUSH1 0x0 DUP1 REVERT JUMPDEST DUP1 PUSH4 0x2B7AC3F3 EQ PUSH2 0x131 JUMPI DUP1 PUSH4 0x2CDABBCE EQ PUSH2 0x161 JUMPI DUP1 PUSH4 0x49590657 EQ PUSH2 0x194 JUMPI DUP1 PUSH4 0x50E9B925 EQ PUSH2 0x1A6 JUMPI DUP1 PUSH4 0x5B7CE6D0 EQ PUSH2 0x1AE JUMPI JUMPDEST PUSH1 0x0 DUP1 REVERT JUMPDEST PUSH1 0x0 SLOAD PUSH2 0x144 SWAP1 PUSH1 0x1 PUSH1 0x1 PUSH1 0xA0 SHL SUB AND DUP2 JUMP JUMPDEST PUSH1 0x40 MLOAD PUSH1 0x1 PUSH1 0x1 PUSH1 0xA0 SHL SUB SWAP1 SWAP2 AND DUP2 MSTORE PUSH1 0x20 ADD JUMPDEST PUSH1 0x40 MLOAD DUP1 SWAP2 SUB SWAP1 RETURN JUMPDEST PUSH2 0x184 PUSH2 0x16F CALLDATASIZE PUSH1 0x4 PUSH2 0x97C JUMP JUMPDEST PUSH1 0x0 SWAP1 DUP2 MSTORE PUSH1 0x18 PUSH1 0x20 MSTORE PUSH1 0x40 SWAP1 KECCAK256 SLOAD PUSH1 0xFF AND SWAP1 JUMP JUMPDEST PUSH1 0x40 MLOAD SWAP1 ISZERO ISZERO DUP2 MSTORE PUSH1 0x20 ADD PUSH2 0x158 JUMP JUMPDEST PUSH1 0x17 SLOAD JUMPDEST PUSH1 0x40 MLOAD SWAP1 DUP2 MSTORE PUSH1 0x20 ADD PUSH2 0x158 JUMP JUMPDEST PUSH1 0x2 SLOAD PUSH2 0x198 JUMP JUMPDEST PUSH2 0x184 PUSH2 0x1BC CALLDATASIZE PUSH1 0x4 PUSH2 0x995 JUMP JUMPDEST PUSH2 0x349 JUMP JUMPDEST PUSH2 0x1D4 PUSH2 0x1CF CALLDATASIZE PUSH1 0x4 PUSH2 0x9B7 JUMP JUMPDEST PUSH2 0x36D JUMP JUMPDEST STOP JUMPDEST PUSH2 0x198 PUSH1 0x82 SLOAD DUP2 JUMP JUMPDEST PUSH2 0x184 PUSH2 0x1ED CALLDATASIZE PUSH1 0x4 PUSH2 0x995 JUMP JUMPDEST PUSH1 0x0 SWAP2 DUP3 MSTORE PUSH1 0x7E PUSH1 0x20 SWAP1 DUP2 MSTORE PUSH1 0x40 DUP1 DUP5 KECCAK256 SWAP3 DUP5 MSTORE SWAP2 SWAP1 MSTORE SWAP1 KECCAK256 SLOAD PUSH1 0xFF AND SWAP1 JUMP JUMPDEST PUSH2 0x198 PUSH2 0x21B CALLDATASIZE PUSH1 0x4 PUSH2 0x97C JUMP JUMPDEST PUSH1 0x0 SWAP1 DUP2 MSTORE PUSH1 0x81 PUSH1 0x20 MSTORE PUSH1 0x40 SWAP1 KECCAK256 SLOAD SWAP1 JUMP JUMPDEST PUSH2 0x198 PUSH1 0x7D SLOAD DUP2 JUMP JUMPDEST PUSH2 0x184 PUSH2 0x244 CALLDATASIZE PUSH1 0x4 PUSH2 0x995 JUMP JUMPDEST PUSH1 0x7E PUSH1 0x20 SWAP1 DUP2 MSTORE PUSH1 0x0 SWAP3 DUP4 MSTORE PUSH1 0x40 DUP1 DUP5 KECCAK256 SWAP1 SWAP2 MSTORE SWAP1 DUP3 MSTORE SWAP1 KECCAK256 SLOAD PUSH1 0xFF AND DUP2 JUMP JUMPDEST PUSH2 0x198 PUSH2 0x272 CALLDATASIZE PUSH1 0x4 PUSH2 0x97C JUMP JUMPDEST PUSH1 0x81 PUSH1 0x20 MSTORE PUSH1 0x0 SWAP1 DUP2 MSTORE PUSH1 0x40 SWAP1 KECCAK256 SLOAD DUP2 JUMP JUMPDEST PUSH2 0x1D4 PUSH2 0x292 CALLDATASIZE PUSH1 0x4 PUSH2 0x9B7 JUMP JUMPDEST PUSH2 0x437 JUMP JUMPDEST PUSH2 0x184 PUSH2 0x2A5 CALLDATASIZE PUSH1 0x4 PUSH2 0x97C JUMP JUMPDEST PUSH1 0x18 PUSH1 0x20 MSTORE PUSH1 0x0 SWAP1 DUP2 MSTORE PUSH1 0x40 SWAP1 KECCAK256 SLOAD PUSH1 0xFF AND DUP2 JUMP JUMPDEST PUSH2 0x198 PUSH2 0x2C8 CALLDATASIZE PUSH1 0x4 PUSH2 0x97C JUMP JUMPDEST PUSH1 0x80 PUSH1 0x20 MSTORE PUSH1 0x0 SWAP1 DUP2 MSTORE PUSH1 0x40 SWAP1 KECCAK256 SLOAD DUP2 JUMP JUMPDEST PUSH2 0x184 PUSH2 0x2E8 CALLDATASIZE PUSH1 0x4 PUSH2 0x9F8 JUMP JUMPDEST PUSH2 0x4ED JUMP JUMPDEST PUSH2 0x198 PUSH1 0x64 DUP2 JUMP JUMPDEST PUSH2 0x184 PUSH2 0x303 CALLDATASIZE PUSH1 0x4 PUSH2 0x995 JUMP JUMPDEST PUSH1 0x7F PUSH1 0x20 SWAP1 DUP2 MSTORE PUSH1 0x0 SWAP3 DUP4 MSTORE PUSH1 0x40 DUP1 DUP5 KECCAK256 SWAP1 SWAP2 MSTORE SWAP1 DUP3 MSTORE SWAP1 KECCAK256 SLOAD PUSH1 0xFF AND DUP2 JUMP JUMPDEST PUSH2 0x198 PUSH2 0x331 CALLDATASIZE PUSH1 0x4 PUSH2 0x97C JUMP JUMPDEST PUSH2 0x7A6 JUMP JUMPDEST PUSH1 0x1 SLOAD PUSH2 0x144 SWAP1 PUSH1 0x1 PUSH1 0x1 PUSH1 0xA0 SHL SUB AND DUP2 JUMP JUMPDEST PUSH1 0x0 DUP3 DUP2 MSTORE PUSH1 0x7F PUSH1 0x20 SWAP1 DUP2 MSTORE PUSH1 0x40 DUP1 DUP4 KECCAK256 DUP5 DUP5 MSTORE SWAP1 SWAP2 MSTORE SWAP1 KECCAK256 SLOAD PUSH1 0xFF AND JUMPDEST SWAP3 SWAP2 POP POP JUMP JUMPDEST PUSH1 0x1 SLOAD PUSH1 0x1 PUSH1 0x1 PUSH1 0xA0 SHL SUB AND CALLER EQ PUSH2 0x3C7 JUMPI PUSH1 0x40 MLOAD PUSH3 0x461BCD PUSH1 0xE5 SHL DUP2 MSTORE PUSH1 0x20 PUSH1 0x4 DUP3 ADD MSTORE PUSH1 0x18 PUSH1 0x24 DUP3 ADD MSTORE PUSH24 0x4F6E6C792061646D696E2063616E2063616C6C2074686973 PUSH1 0x40 SHL PUSH1 0x44 DUP3 ADD MSTORE PUSH1 0x64 ADD JUMPDEST PUSH1 0x40 MLOAD DUP1 SWAP2 SUB SWAP1 REVERT JUMPDEST PUSH1 0x1 PUSH1 0x1 PUSH1 0xA0 SHL SUB DUP2 AND PUSH2 0x415 JUMPI PUSH1 0x40 MLOAD PUSH3 0x461BCD PUSH1 0xE5 SHL DUP2 MSTORE PUSH1 0x20 PUSH1 0x4 DUP3 ADD MSTORE PUSH1 0x15 PUSH1 0x24 DUP3 ADD MSTORE PUSH21 0x496E76616C69642061646D696E2061646472657373 PUSH1 0x58 SHL PUSH1 0x44 DUP3 ADD MSTORE PUSH1 0x64 ADD PUSH2 0x3BE JUMP JUMPDEST PUSH1 0x1 DUP1 SLOAD PUSH1 0x1 PUSH1 0x1 PUSH1 0xA0 SHL SUB NOT AND PUSH1 0x1 PUSH1 0x1 PUSH1 0xA0 SHL SUB SWAP3 SWAP1 SWAP3 AND SWAP2 SWAP1 SWAP2 OR SWAP1 SSTORE JUMP JUMPDEST PUSH1 0x1 SLOAD PUSH1 0x1 PUSH1 0x1 PUSH1 0xA0 SHL SUB AND CALLER EQ PUSH2 0x48C JUMPI PUSH1 0x40 MLOAD PUSH3 0x461BCD PUSH1 0xE5 SHL DUP2 MSTORE PUSH1 0x20 PUSH1 0x4 DUP3 ADD MSTORE PUSH1 0x18 PUSH1 0x24 DUP3 ADD MSTORE PUSH24 0x4F6E6C792061646D696E2063616E2063616C6C2074686973 PUSH1 0x40 SHL PUSH1 0x44 DUP3 ADD MSTORE PUSH1 0x64 ADD PUSH2 0x3BE JUMP JUMPDEST PUSH1 0x0 DUP1 SLOAD PUSH1 0x1 PUSH1 0x1 PUSH1 0xA0 SHL SUB DUP4 DUP2 AND PUSH1 0x1 PUSH1 0x1 PUSH1 0xA0 SHL SUB NOT DUP4 AND DUP2 OR SWAP1 SWAP4 SSTORE PUSH1 0x40 DUP1 MLOAD SWAP2 SWAP1 SWAP3 AND DUP1 DUP3 MSTORE PUSH1 0x20 DUP3 ADD SWAP4 SWAP1 SWAP4 MSTORE PUSH32 0x243549A92B2412F7A3CAF7A2E56D65B8821B91345363FAA5F57195384065FCC SWAP2 ADD PUSH1 0x40 MLOAD DUP1 SWAP2 SUB SWAP1 LOG1 POP POP JUMP JUMPDEST PUSH1 0x40 DUP1 DUP3 ADD CALLDATALOAD PUSH1 0x0 DUP2 DUP2 MSTORE PUSH1 0x7E PUSH1 0x20 SWAP1 DUP2 MSTORE DUP4 DUP3 KECCAK256 DUP2 DUP7 ADD CALLDATALOAD DUP1 DUP5 MSTORE SWAP2 MSTORE SWAP3 DUP2 KECCAK256 SLOAD SWAP1 SWAP3 DUP5 CALLDATALOAD SWAP3 SWAP1 SWAP2 PUSH1 0xFF AND ISZERO PUSH2 0x566 JUMPI PUSH1 0x40 MLOAD PUSH3 0x461BCD PUSH1 0xE5 SHL DUP2 MSTORE PUSH1 0x20 PUSH1 0x4 DUP3 ADD MSTORE PUSH1 0x19 PUSH1 0x24 DUP3 ADD MSTORE PUSH32 0x417070726F76616C20616C726561647920766572696669656400000000000000 PUSH1 0x44 DUP3 ADD MSTORE PUSH1 0x64 ADD PUSH2 0x3BE JUMP JUMPDEST PUSH1 0x0 DUP1 SLOAD PUSH1 0x40 MLOAD PUSH4 0x8A3CFF5 PUSH1 0xE1 SHL DUP2 MSTORE PUSH1 0x1 PUSH1 0x1 PUSH1 0xA0 SHL SUB SWAP1 SWAP2 AND SWAP1 PUSH4 0x11479FEA SWAP1 PUSH2 0x59D SWAP1 DUP13 SWAP1 DUP13 SWAP1 DUP13 SWAP1 DUP13 SWAP1 PUSH1 0x4 ADD PUSH2 0xA74 JUMP JUMPDEST PUSH1 0x20 PUSH1 0x40 MLOAD DUP1 DUP4 SUB DUP2 DUP7 GAS STATICCALL ISZERO DUP1 ISZERO PUSH2 0x5BA JUMPI RETURNDATASIZE PUSH1 0x0 DUP1 RETURNDATACOPY RETURNDATASIZE PUSH1 0x0 REVERT JUMPDEST POP POP POP POP PUSH1 0x40 MLOAD RETURNDATASIZE PUSH1 0x1F NOT PUSH1 0x1F DUP3 ADD AND DUP3 ADD DUP1 PUSH1 0x40 MSTORE POP DUP2 ADD SWAP1 PUSH2 0x5DE SWAP2 SWAP1 PUSH2 0xAC0 JUMP JUMPDEST SWAP1 POP DUP1 PUSH2 0x620 JUMPI PUSH1 0x40 MLOAD PUSH3 0x461BCD PUSH1 0xE5 SHL DUP2 MSTORE PUSH1 0x20 PUSH1 0x4 DUP3 ADD MSTORE PUSH1 0x10 PUSH1 0x24 DUP3 ADD MSTORE PUSH16 0x24B73B30B634B2102D2590383937B7B3 PUSH1 0x81 SHL PUSH1 0x44 DUP3 ADD MSTORE PUSH1 0x64 ADD PUSH2 0x3BE JUMP JUMPDEST PUSH1 0x0 DUP3 DUP2 MSTORE PUSH1 0x7E PUSH1 0x20 SWAP1 DUP2 MSTORE PUSH1 0x40 DUP1 DUP4 KECCAK256 DUP7 DUP5 MSTORE DUP3 MSTORE DUP1 DUP4 KECCAK256 DUP1 SLOAD PUSH1 0x1 PUSH1 0xFF NOT SWAP2 DUP3 AND DUP2 OR SWAP1 SWAP3 SSTORE DUP7 DUP6 MSTORE PUSH1 0x7F DUP5 MSTORE DUP3 DUP6 KECCAK256 DUP10 DUP7 MSTORE DUP5 MSTORE DUP3 DUP6 KECCAK256 DUP1 SLOAD SWAP1 SWAP2 AND SWAP1 SWAP2 OR SWAP1 SSTORE DUP5 DUP4 MSTORE PUSH1 0x81 SWAP1 SWAP2 MSTORE DUP2 KECCAK256 DUP1 SLOAD SWAP2 PUSH2 0x67A DUP4 PUSH2 0xAF8 JUMP JUMPDEST SWAP1 SWAP2 SSTORE POP POP PUSH1 0x17 SLOAD PUSH1 0x0 PUSH2 0x68F PUSH1 0x2 DUP8 PUSH2 0x7BD JUMP JUMPDEST PUSH1 0x17 SLOAD PUSH1 0x7D SLOAD SWAP2 SWAP3 POP SWAP1 PUSH1 0x64 SWAP1 PUSH2 0x6A7 SWAP1 PUSH1 0x1 PUSH2 0xB11 JUMP JUMPDEST PUSH2 0x6B1 SWAP2 SWAP1 PUSH2 0xB3A JUMP JUMPDEST PUSH1 0x7D DUP2 SWAP1 SSTORE DUP2 SWAP1 PUSH1 0x19 SWAP1 PUSH1 0x64 DUP2 LT PUSH2 0x6CB JUMPI PUSH2 0x6CB PUSH2 0xA5E JUMP JUMPDEST ADD SSTORE PUSH1 0x0 DUP2 DUP2 MSTORE PUSH1 0x18 PUSH1 0x20 SWAP1 DUP2 MSTORE PUSH1 0x40 DUP1 DUP4 KECCAK256 DUP1 SLOAD PUSH1 0xFF NOT AND PUSH1 0x1 OR SWAP1 SSTORE DUP5 DUP4 MSTORE PUSH1 0x80 SWAP1 SWAP2 MSTORE DUP2 KECCAK256 DUP9 SWAP1 SSTORE PUSH1 0x82 DUP1 SLOAD SWAP2 PUSH2 0x704 DUP4 PUSH2 0xAF8 JUMP JUMPDEST SWAP2 SWAP1 POP SSTORE POP DUP1 DUP4 PUSH32 0x85ABB7E1EC79F8009EEFD74599F97EA7FC898D7FA78827628D02BF5178E0EA6 DUP5 PUSH1 0x40 MLOAD PUSH2 0x73C SWAP2 DUP2 MSTORE PUSH1 0x20 ADD SWAP1 JUMP JUMPDEST PUSH1 0x40 MLOAD DUP1 SWAP2 SUB SWAP1 LOG3 PUSH1 0x40 DUP1 MLOAD DUP8 DUP2 MSTORE PUSH1 0x20 DUP2 ADD DUP10 SWAP1 MSTORE SWAP1 DUP2 ADD DUP4 SWAP1 MSTORE PUSH1 0x60 DUP2 ADD DUP3 SWAP1 MSTORE TIMESTAMP PUSH1 0x80 DUP3 ADD MSTORE DUP6 SWAP1 PUSH32 0x47A0DF1F857AC2C7D2BE4A11EB4F860FFCCBA11DC1D83F4823590D9036221E1 SWAP1 PUSH1 0xA0 ADD PUSH1 0x40 MLOAD DUP1 SWAP2 SUB SWAP1 LOG2 POP PUSH1 0x1 SWAP12 SWAP11 POP POP POP POP POP POP POP POP POP POP POP JUMP JUMPDEST PUSH1 0x19 DUP2 PUSH1 0x64 DUP2 LT PUSH2 0x7B6 JUMPI PUSH1 0x0 DUP1 REVERT JUMPDEST ADD SLOAD SWAP1 POP DUP2 JUMP JUMPDEST PUSH1 0x0 PUSH2 0x7CB PUSH1 0x14 PUSH1 0x2 PUSH2 0xC32 JUMP JUMPDEST DUP4 SLOAD LT PUSH2 0x809 JUMPI PUSH1 0x40 MLOAD PUSH3 0x461BCD PUSH1 0xE5 SHL DUP2 MSTORE PUSH1 0x20 PUSH1 0x4 DUP3 ADD MSTORE PUSH1 0xC PUSH1 0x24 DUP3 ADD MSTORE PUSH12 0x151C9959481A5CC8199D5B1B PUSH1 0xA2 SHL PUSH1 0x44 DUP3 ADD MSTORE PUSH1 0x64 ADD PUSH2 0x3BE JUMP JUMPDEST DUP3 SLOAD DUP3 PUSH1 0x0 JUMPDEST PUSH1 0x14 DUP2 LT ISZERO PUSH2 0x8E4 JUMPI PUSH2 0x823 PUSH1 0x2 DUP5 PUSH2 0xB3A JUMP JUMPDEST PUSH1 0x0 SUB PUSH2 0x87E JUMPI DUP2 DUP7 PUSH1 0x1 ADD DUP3 PUSH1 0x14 DUP2 LT PUSH2 0x840 JUMPI PUSH2 0x840 PUSH2 0xA5E JUMP JUMPDEST ADD SSTORE DUP2 PUSH2 0x84C DUP3 PUSH2 0x916 JUMP JUMPDEST PUSH1 0x40 DUP1 MLOAD PUSH1 0x20 DUP2 ADD SWAP4 SWAP1 SWAP4 MSTORE DUP3 ADD MSTORE PUSH1 0x60 ADD PUSH1 0x40 MLOAD PUSH1 0x20 DUP2 DUP4 SUB SUB DUP2 MSTORE SWAP1 PUSH1 0x40 MSTORE DUP1 MLOAD SWAP1 PUSH1 0x20 ADD KECCAK256 PUSH1 0x0 SHR SWAP2 POP PUSH2 0x8C5 JUMP JUMPDEST DUP6 PUSH1 0x1 ADD DUP2 PUSH1 0x14 DUP2 LT PUSH2 0x893 JUMPI PUSH2 0x893 PUSH2 0xA5E JUMP JUMPDEST ADD SLOAD PUSH1 0x40 DUP1 MLOAD PUSH1 0x20 DUP2 ADD SWAP3 SWAP1 SWAP3 MSTORE DUP2 ADD DUP4 SWAP1 MSTORE PUSH1 0x60 ADD PUSH1 0x40 MLOAD PUSH1 0x20 DUP2 DUP4 SUB SUB DUP2 MSTORE SWAP1 PUSH1 0x40 MSTORE DUP1 MLOAD SWAP1 PUSH1 0x20 ADD KECCAK256 PUSH1 0x0 SHR SWAP2 POP JUMPDEST PUSH2 0x8D0 PUSH1 0x2 DUP5 PUSH2 0xC3E JUMP JUMPDEST SWAP3 POP DUP1 PUSH2 0x8DC DUP2 PUSH2 0xAF8 JUMP JUMPDEST SWAP2 POP POP PUSH2 0x80F JUMP JUMPDEST POP PUSH1 0x15 DUP6 ADD DUP2 SWAP1 SSTORE DUP5 SLOAD DUP6 PUSH1 0x0 PUSH2 0x8FA DUP4 PUSH2 0xAF8 JUMP JUMPDEST SWAP1 SWAP2 SSTORE POP POP DUP5 SLOAD PUSH2 0x90D SWAP1 PUSH1 0x1 SWAP1 PUSH2 0xC52 JUMP JUMPDEST SWAP6 SWAP5 POP POP POP POP POP JUMP JUMPDEST PUSH1 0x0 DUP2 PUSH1 0x0 SUB PUSH2 0x928 JUMPI POP PUSH1 0x0 SWAP2 SWAP1 POP JUMP JUMPDEST DUP2 PUSH1 0x1 SUB PUSH2 0x96B JUMPI PUSH1 0x0 DUP1 PUSH1 0x40 MLOAD PUSH1 0x20 ADD PUSH2 0x94D SWAP3 SWAP2 SWAP1 SWAP2 DUP3 MSTORE PUSH1 0x20 DUP3 ADD MSTORE PUSH1 0x40 ADD SWAP1 JUMP JUMPDEST PUSH1 0x40 DUP1 MLOAD PUSH1 0x1F NOT DUP2 DUP5 SUB ADD DUP2 MSTORE SWAP2 SWAP1 MSTORE DUP1 MLOAD PUSH1 0x20 SWAP1 SWAP2 ADD KECCAK256 SWAP3 SWAP2 POP POP JUMP JUMPDEST PUSH1 0x40 DUP1 MLOAD PUSH1 0x20 DUP2 ADD DUP5 SWAP1 MSTORE ADD PUSH2 0x94D JUMP JUMPDEST PUSH1 0x0 PUSH1 0x20 DUP3 DUP5 SUB SLT ISZERO PUSH2 0x98E JUMPI PUSH1 0x0 DUP1 REVERT JUMPDEST POP CALLDATALOAD SWAP2 SWAP1 POP JUMP JUMPDEST PUSH1 0x0 DUP1 PUSH1 0x40 DUP4 DUP6 SUB SLT ISZERO PUSH2 0x9A8 JUMPI PUSH1 0x0 DUP1 REVERT JUMPDEST POP POP DUP1 CALLDATALOAD SWAP3 PUSH1 0x20 SWAP1 SWAP2 ADD CALLDATALOAD SWAP2 POP JUMP JUMPDEST PUSH1 0x0 PUSH1 0x20 DUP3 DUP5 SUB SLT ISZERO PUSH2 0x9C9 JUMPI PUSH1 0x0 DUP1 REVERT JUMPDEST DUP2 CALLDATALOAD PUSH1 0x1 PUSH1 0x1 PUSH1 0xA0 SHL SUB DUP2 AND DUP2 EQ PUSH2 0x9E0 JUMPI PUSH1 0x0 DUP1 REVERT JUMPDEST SWAP4 SWAP3 POP POP POP JUMP JUMPDEST DUP1 PUSH1 0x40 DUP2 ADD DUP4 LT ISZERO PUSH2 0x367 JUMPI PUSH1 0x0 DUP1 REVERT JUMPDEST PUSH1 0x0 DUP1 PUSH1 0x0 DUP1 PUSH2 0x160 DUP1 DUP7 DUP9 SUB SLT ISZERO PUSH2 0xA10 JUMPI PUSH1 0x0 DUP1 REVERT JUMPDEST PUSH2 0xA1A DUP8 DUP8 PUSH2 0x9E7 JUMP JUMPDEST SWAP5 POP PUSH1 0xC0 DUP7 ADD DUP8 DUP2 GT ISZERO PUSH2 0xA2D JUMPI PUSH1 0x0 DUP1 REVERT JUMPDEST PUSH1 0x40 DUP8 ADD SWAP5 POP PUSH2 0xA3D DUP9 DUP3 PUSH2 0x9E7 JUMP JUMPDEST SWAP4 POP POP DUP7 DUP2 DUP8 ADD GT ISZERO PUSH2 0xA4F JUMPI PUSH1 0x0 DUP1 REVERT JUMPDEST POP SWAP3 SWAP6 SWAP2 SWAP5 POP SWAP3 PUSH2 0x100 ADD SWAP2 POP JUMP JUMPDEST PUSH4 0x4E487B71 PUSH1 0xE0 SHL PUSH1 0x0 MSTORE PUSH1 0x32 PUSH1 0x4 MSTORE PUSH1 0x24 PUSH1 0x0 REVERT JUMPDEST PUSH2 0x160 DUP2 ADD PUSH1 0x40 DUP1 DUP8 DUP5 CALLDATACOPY DUP1 DUP4 ADD DUP7 PUSH1 0x0 JUMPDEST PUSH1 0x2 DUP2 LT ISZERO PUSH2 0xAA3 JUMPI DUP4 DUP3 DUP5 CALLDATACOPY SWAP2 DUP4 ADD SWAP2 SWAP1 DUP4 ADD SWAP1 PUSH1 0x1 ADD PUSH2 0xA86 JUMP JUMPDEST POP POP POP DUP1 DUP6 PUSH1 0xC0 DUP6 ADD CALLDATACOPY POP PUSH1 0x60 DUP4 PUSH2 0x100 DUP5 ADD CALLDATACOPY SWAP6 SWAP5 POP POP POP POP POP JUMP JUMPDEST PUSH1 0x0 PUSH1 0x20 DUP3 DUP5 SUB SLT ISZERO PUSH2 0xAD2 JUMPI PUSH1 0x0 DUP1 REVERT JUMPDEST DUP2 MLOAD DUP1 ISZERO ISZERO DUP2 EQ PUSH2 0x9E0 JUMPI PUSH1 0x0 DUP1 REVERT JUMPDEST PUSH4 0x4E487B71 PUSH1 0xE0 SHL PUSH1 0x0 MSTORE PUSH1 0x11 PUSH1 0x4 MSTORE PUSH1 0x24 PUSH1 0x0 REVERT JUMPDEST PUSH1 0x0 PUSH1 0x1 DUP3 ADD PUSH2 0xB0A JUMPI PUSH2 0xB0A PUSH2 0xAE2 JUMP JUMPDEST POP PUSH1 0x1 ADD SWAP1 JUMP JUMPDEST DUP1 DUP3 ADD DUP1 DUP3 GT ISZERO PUSH2 0x367 JUMPI PUSH2 0x367 PUSH2 0xAE2 JUMP JUMPDEST PUSH4 0x4E487B71 PUSH1 0xE0 SHL PUSH1 0x0 MSTORE PUSH1 0x12 PUSH1 0x4 MSTORE PUSH1 0x24 PUSH1 0x0 REVERT JUMPDEST PUSH1 0x0 DUP3 PUSH2 0xB49 JUMPI PUSH2 0xB49 PUSH2 0xB24 JUMP JUMPDEST POP MOD SWAP1 JUMP JUMPDEST PUSH1 0x1 DUP2 DUP2 JUMPDEST DUP1 DUP6 GT ISZERO PUSH2 0xB89 JUMPI DUP2 PUSH1 0x0 NOT DIV DUP3 GT ISZERO PUSH2 0xB6F JUMPI PUSH2 0xB6F PUSH2 0xAE2 JUMP JUMPDEST DUP1 DUP6 AND ISZERO PUSH2 0xB7C JUMPI SWAP2 DUP2 MUL SWAP2 JUMPDEST SWAP4 DUP5 SHR SWAP4 SWAP1 DUP1 MUL SWAP1 PUSH2 0xB53 JUMP JUMPDEST POP SWAP3 POP SWAP3 SWAP1 POP JUMP JUMPDEST PUSH1 0x0 DUP3 PUSH2 0xBA0 JUMPI POP PUSH1 0x1 PUSH2 0x367 JUMP JUMPDEST DUP2 PUSH2 0xBAD JUMPI POP PUSH1 0x0 PUSH2 0x367 JUMP JUMPDEST DUP2 PUSH1 0x1 DUP2 EQ PUSH2 0xBC3 JUMPI PUSH1 0x2 DUP2 EQ PUSH2 0xBCD JUMPI PUSH2 0xBE9 JUMP JUMPDEST PUSH1 0x1 SWAP2 POP POP PUSH2 0x367 JUMP JUMPDEST PUSH1 0xFF DUP5 GT ISZERO PUSH2 0xBDE JUMPI PUSH2 0xBDE PUSH2 0xAE2 JUMP JUMPDEST POP POP PUSH1 0x1 DUP3 SHL PUSH2 0x367 JUMP JUMPDEST POP PUSH1 0x20 DUP4 LT PUSH2 0x133 DUP4 LT AND PUSH1 0x4E DUP5 LT PUSH1 0xB DUP5 LT AND OR ISZERO PUSH2 0xC0C JUMPI POP DUP2 DUP2 EXP PUSH2 0x367 JUMP JUMPDEST PUSH2 0xC16 DUP4 DUP4 PUSH2 0xB4E JUMP JUMPDEST DUP1 PUSH1 0x0 NOT DIV DUP3 GT ISZERO PUSH2 0xC2A JUMPI PUSH2 0xC2A PUSH2 0xAE2 JUMP JUMPDEST MUL SWAP4 SWAP3 POP POP POP JUMP JUMPDEST PUSH1 0x0 PUSH2 0x9E0 DUP4 DUP4 PUSH2 0xB91 JUMP JUMPDEST PUSH1 0x0 DUP3 PUSH2 0xC4D JUMPI PUSH2 0xC4D PUSH2 0xB24 JUMP JUMPDEST POP DIV SWAP1 JUMP JUMPDEST DUP2 DUP2 SUB DUP2 DUP2 GT ISZERO PUSH2 0x367 JUMPI PUSH2 0x367 PUSH2 0xAE2 JUMP INVALID LOG2 PUSH5 0x6970667358 0x22 SLT KECCAK256 0x4D 0xEC 0x26 SWAP4 PUSH7 0xEC7F574CCB0D49 0xDF PUSH14 0x6EDE4813D6B7C825A6DEDE1F0B17 PUSH8 0x91E56664736F6C63 NUMBER STOP ADDMOD EQ STOP CALLER "},"methodIdentifiers":{"ROOT_HISTORY_SIZE()":"cd87a3b4","admin()":"f851a440","commitments(uint256,uint256)":"d13e2e60","currentRootIndex()":"90eeb02b","eventVerifiedCount(uint256)":"9783de0b","getMerkleRoot()":"49590657","getNextLeafIndex()":"50e9b925","getVerifiedCount(uint256)":"88a78d9e","hasCommitment(uint256,uint256)":"5b7ce6d0","isKnownRoot(uint256)":"a6232a93","isNullifierUsed(uint256,uint256)":"85c74296","isValidRoot(uint256)":"2cdabbce","leafToCommitment(uint256)":"abcea41a","rootHistory(uint256)":"f1c621ee","totalCommitments()":"78bb86d3","transferAdmin(address)":"75829def","updateVerifier(address)":"97fc007c","verifiedApprovals(uint256,uint256)":"940bcaea","verifier()":"2b7ac3f3","verifyAndRegister(uint256[2],uint256[2][2],uint256[2],uint256[3])":"b759730d"}}}}}